:1000000009C00EC00DC00CC00BC00AC009C008C09A
:1000100007C006C011241FBECFE9CDBF19D02EC026
:10002000EFCF81E087BB8FE188BB83E08FBD089570
:10003000882339F09FB5906C9FBD86BF81E083BF58
:10004000089516BE8FB58F738FBD13BE08950895A2
:10005000E8DFB49902C08FEF0BC0B39902C080EC07
:1000600007C0B29902C080E803C0B19903C080E420
:10007000DFDFEFCF80E0DCDFC09AEBCFF894FFCF7B
:00000001FF
