:1000000009C00EC00DC00CC00BC00AC009C008C09A
:1000100007C006C011241FBECFE9CDBF60D0A7C066
:10002000EFCFDF93CF93CDB7DEB787E390E021E04A
:10003000FC01208388E390E02FE1FC0120838FE422
:1000400090E023E0FC012083CF91DF910895DF93BE
:10005000CF930F92CDB7DEB7898389818823A1F032
:100060008FE490E02FE430E0F9012081206CFC0166
:10007000208386E590E02981FC01208383E590E0E0
:1000800023E0FC01208311C086E590E0FC01108292
:100090008FE490E02FE430E0F90120812F73FC0120
:1000A000208383E590E0FC0110820F90CF91DF91D7
:1000B0000895DF93CF9300D0CDB7DEB79A838983BD
:1000C00005C089819A8101979A83898389819A8160
:1000D0000097B9F7CE5FCDBFCF91DF910895DF9341
:1000E000CF93CDB7DEB79DDF86E390E0FC01808142
:1000F000882F90E080719070009719F48FEFA7DF40
:1001000032C086E390E0FC018081882F90E0887007
:100110009070009719F480EC9ADF25C086E390E098
:10012000FC018081882F90E084709070009719F412
:1001300080E88DDF18C086E390E0FC018081882F85
:1001400090E082709070009719F480E480DF0BC01B
:1001500080E07DDF88E390E028E330E0F901208152
:100160002160FC0120838EEB9FE3A3DFBDCFF894D9
:02017000FFCFBF
:00000001FF
